:100000000C9424010C9435030C9441010C9441018F
:100010000C94C5010C947C020C9441010C94410198
:100020000C9441010C9441010C9441010C94410148
:100030000C9441010C9441010C9443010C94410136
:100040000C9441010C9441010C9441010C94410128
:100050000C9441010C9441010C9441010C94410118
:100060000C9441010C944101000000000000005F6D
:1000700000000007000700147F147F14242A7F2A41
:10008000122313086462364955225000050300000C
:10009000001C2241000041221C0014083E081408E4
:1000A000083E0808005030000008080808080060F2
:1000B00060000020100804023E5149453E00427F86
:1000C000400042615149462141454B311814127F8D
:1000D0001027454545393C4A494930017109050316
:1000E0003649494936064949291E0036360000007E
:1000F0005636000008142241001414141414004150
:100100002214080201510906324979413E7E11113B
:10011000117E7F494949363E414141227F4141227A
:100120001C7F494949417F090909013E4149497AF2
:100130007F0808087F00417F41002040413F017F48
:10014000081422417F404040407F020C027F7F0420
:1001500008107F3E4141413E7F090909063E415159
:10016000215E7F09192946464949493101017F012C
:10017000013F4040403F1F2040201F3F4038403F4C
:100180006314081463070870080761514945430068
:100190007F41410002040810200041417F00040219
:1001A0000102044040404040000102040020545439
:1001B00054787F48444438384444442038444448C0
:1001C0007F3854545418087E0901020C5252523E92
:1001D0007F0804047800447D40002040443D007FB7
:1001E0001028440000417F40007C041804787C08FB
:1001F00004047838444444387C1414140808141453
:10020000187C7C080404084854545420043F44409B
:10021000203C4040207C1C2040201C3C4030403C86
:1002200044281028440C5050503C4464544C440022
:100230000836410000007F00000041360800100829
:10024000081008000000000011241FBECFEFD8E006
:10025000DEBFCDBF11E0A0E0B1E0E0E1F5E202C019
:1002600005900D92AC34B107D9F723E0ACE4B1E0CE
:1002700001C01D92AD36B207E1F70E9432090C941D
:1002800086120C9400001F920F9200905F000F9254
:1002900011242F933F934F935F936F937F938F938B
:1002A0009F93AF93BF93EF93FF93CF93DF93CDB71C
:1002B000DEB78091600190916101A0916201B091DF
:1002C00063010196A11DB11D8093600190936101AE
:1002D000A0936201B09363018091600190916101EC
:1002E000A0916201B091630124EF31E040E050E061
:1002F000BC01CD010E944C0FDC01CB01892B8A2B64
:100300008B2B61F481E090E0A0E0B0E08093540199
:1003100090935501A0935601B093570180916001CD
:1003200090916101A0916201B091630128E833E1ED
:1003300040E050E0BC01CD010E944C0FDC01CB013C
:10034000892B8A2B8B2B61F481E090E0A0E0B0E058
:100350008093500190935101A0935201B0935301A7
:100360000000DF91CF91FF91EF91BF91AF919F91ED
:100370008F917F916F915F914F913F912F910F904E
:1003800000925F000F901F9018951F920F9200909F
:100390005F000F9211242F933F934F935F936F93BE
:1003A0007F938F939F93AF93BF93EF93FF93CF93DD
:1003B000DF93CDB7DEB786E290E0FC018081882F25
:1003C00090E080749927892B09F081C08091060103
:1003D00090910701A0910801B09109018431910524
:1003E000A105B105B9F185319105A105B10528F443
:1003F000892B8A2B8B2B61F068C08E319105A1056A
:10040000B105D1F18897A105B10509F447C05DC0D8
:1004100080914C0190914D01A0914E01B0914F01FE
:10042000892B8A2B8B2B69F481E090E0A0E0B0E06F
:1004300080934C0190934D01A0934E01B0934F01D6
:1004400044C010924C0110924D0110924E01109236
:100450004F013BC08091020190910301893E93407E
:1004600078F18091020190910301885E934090930E
:1004700003018093020124C0809104019091050141
:10048000893E9340F8F08091040190910501885EC7
:100490009340909305018093040114C08091000162
:1004A00090910101893E934078F0809100019091F4
:1004B0000101885E9340909301018093000104C084
:1004C000000003C0000001C000000E94E103000022
:1004D000DF91CF91FF91EF91BF91AF919F918F915C
:1004E0007F916F915F914F913F912F910F9000926B
:1004F0005F000F901F9018951F920F9200905F0061
:100500000F9211242F933F934F935F936F937F9399
:100510008F939F93AF93BF93EF93FF93CF93DF930B
:10052000CDB7DEB789E290E0FC018081882F90E0B2
:1005300080729927892B99F48091580190915901E3
:10054000A0915A01B0915B010196A11DB11D80934C
:10055000580190935901A0935A01B0935B0189E22D
:1005600090E0FC018081882F90E080749927892B8E
:1005700061F480916C0190916D01039734F484E0F3
:1005800090E090936D0180936C0180914C0190916B
:100590004D01A0914E01B0914F01892B8A2B8B2BDD
:1005A00009F04EC089E290E0FC018081882F90E044
:1005B00080719927892B09F041C0809106019091A3
:1005C0000701A0910801B09109014497A105B10567
:1005D00049F410920601109207011092080110923E
:1005E00009012CC08091060190910701A09108019A
:1005F000B0910901892B8A2B8B2B69F488E290E05A
:10060000A0E0B0E08093060190930701A093080159
:10061000B093090113C08091060190910701A09148
:100620000801B09109010A97A109B1098093060157
:1006300090930701A0930801B09309010E94E10380
:100640000000DF91CF91FF91EF91BF91AF919F910A
:100650008F917F916F915F914F913F912F910F906B
:1006600000925F000F901F9018951F920F920090BC
:100670005F000F9211242F933F934F935F936F93DB
:100680007F938F939F93AF93BF93EF93FF93CF93FA
:10069000DF93CDB7DEB78091060190910701A0915D
:1006A0000801B091090184319105A105B105B9F1A5
:1006B00085319105A105B10528F4892B8A2B8B2B57
:1006C00061F068C08E319105A105B105D1F188971F
:1006D000A105B10509F447C05DC080914C0190911E
:1006E0004D01A0914E01B0914F01892B8A2B8B2B8C
:1006F00069F481E090E0A0E0B0E080934C01909339
:100700004D01A0934E01B0934F0144C010924C0193
:1007100010924D0110924E0110924F013BC08091FA
:100720000201909103018832934278F58091020191
:100730009091030188519C4F909303018093020193
:1007400024C0809104019091050188329342F8F40D
:10075000809104019091050188519C4F909305016F
:100760008093040114C080910001909101018832AE
:10077000934278F4809100019091010188519C4F3F
:10078000909301018093000104C0000003C00000A9
:1007900001C000000E94E1030000DF91CF91FF91B2
:1007A000EF91BF91AF919F918F917F916F915F91E9
:1007B0004F913F912F910F9000925F000F901F90EB
:1007C0001895EF92FF920F931F93CF93DF93CDB7BE
:1007D000DEB769970FB6F894DEBF0FBECDBF80912C
:1007E0005C0190915D01A0915E01B0915F012B2FA2
:1007F0002F932A2F2F93292F2F938F938AE091E005
:10080000892F8F938AE091E08F93CE010596292F4F
:100810002F938F930E949C0F8DB79EB708960FB6AB
:10082000F894DEBF0FBECDBF809100019091010111
:100830009695879596958795969587959C01A5ECB5
:10084000B0E20E948D0F929582958F7089279F70DC
:100850008927292F2F938F938AE091E0892F8F93F7
:100860008AE091E08F93CE010996292F2F938F93E1
:100870000E949C0F0F900F900F900F900F900F9071
:1008800080910201909103019695879596958795A1
:10089000969587959C01A5ECB0E20E948D0F9295EC
:1008A00082958F7089279F708927292F2F938F9387
:1008B0008AE091E0892F8F938AE091E08F93CE01B7
:1008C0000B96292F2F938F930E949C0F0F900F90C0
:1008D0000F900F900F900F9080910401909105015F
:1008E0009695879596958795969587959C01A5EC05
:1008F000B0E20E948D0F929582958F7089279F702C
:100900008927292F2F938F938AE091E0892F8F9346
:100910008AE091E08F93CE010D96292F2F938F932C
:100920000E949C0F0F900F900F900F900F900F90C0
:1009300080914C0190914D01A0914E01B0914F01D9
:10094000892B8A2B8B2B11F081E401C08DE48F87DA
:10095000188A8091640190916501A0916601B0911F
:1009600067012B2F2F932A2F2F93292F2F938F93AC
:100970008AE091E0892F8F938AE091E08F93CE01F6
:100980004196292F2F938F930E949C0F8DB79EB76E
:1009900008960FB6F894DEBF0FBECDBF80916801F8
:1009A00090916901A0916A01B0916B0120E030E063
:1009B00040E251E4BC01CD010E94760D88231CF475
:1009C00081E090E002C08AE090E09C838B838B8181
:1009D0009C81092E000CAA0BBB0BBC01CD010E940F
:1009E0001E0E7B018C018091680190916901A0919C
:1009F0006A01B0916B019C01AD01C801B7010E9471
:100A0000D30EDC01CB01BC01CD010E94ED0DDC0158
:100A1000CB012B2F2F932A2F2F93292F2F938F9397
:100A20008AE091E0892F8F938AE091E08F93CE0145
:100A30004596292F2F938F930E949C0F8DB79EB7B9
:100A400008960FB6F894DEBF0FBECDBF888D898F94
:100A50008F89888F8EE28F8B0E94EB0B61E08DE097
:100A600091E00E941E0D60E08EE10E94410DCE01DA
:100A70000F9661E00E941E0D6AE080E00E94410D29
:100A800061E082E191E00E941E0D64E180E00E943D
:100A9000410D61E089E191E00E941E0DCE010B96AF
:100AA00061E00E941E0D6EE180E00E94410D61E058
:100AB0008FE191E00E941E0DCE010D9661E00E9433
:100AC0001E0D68E280E00E94410D61E085E291E048
:100AD0000E941E0DCE01099661E00E941E0D8091BC
:100AE000060190910701A0910801B0910901682FBA
:100AF00086E20E94410D61E08CE30E946C0C1A8238
:100B000019820FC061E08BE291E00E941E0D898185
:100B1000682F8BE20E94410D89819A8101969A8308
:100B2000898389819A818A976CF360E080E30E94CF
:100B3000410DCE01459661E00E941E0D60E088E403
:100B40000E94410D61E08DE291E00E941E0D6AE07D
:100B50008CE30E94410DCE01419661E00E941E0D82
:100B600064E18CE30E94410D61E080E391E00E942A
:100B70001E0D6EE181E40E94410DCE01059661E0FB
:100B80000E941E0D68E287E30E94410D61E084E34C
:100B900091E00E941E0D0E94540D000069960FB650
:100BA000F894DEBF0FBECDBFDF91CF911F910F91A3
:100BB000FF90EF900895CF93DF9300D000D000D046
:100BC000CDB7DEB79E838D838D819E81FC018081B0
:100BD0009181A281B381892B8A2B8B2B09F4CAC006
:100BE0008D819E81FC01108211821282138280917C
:100BF0004C0190914D01A0914E01B0914F01892B74
:100C00008A2B8B2B09F4A6C080915C0190915D0129
:100C1000A0915E01B0915F0189839A83AB83BC830D
:100C2000209158013091590140915A0150915B0136
:100C3000DA01C901880F991FAA1FBB1F820F931FDA
:100C4000A41FB51F880F991FAA1FBB1F880F991FCC
:100C5000AA1FBB1F80935C0190935D01A0935E016E
:100C6000B0935F0180915C0190915D01A0915E0164
:100C7000B0915F0129813A814B815C812817390746
:100C80004A075B0709F46EC080915C0190915D0199
:100C9000A0915E01B0915F012CE330E040E050E0B4
:100CA000BC01CD010E944C0FDA01C9010196A11DC2
:100CB000B11DAC0128EE33E0429FC001439F900D6F
:100CC000529F900D11249093030180930201809113
:100CD0000201909103018932934230F088E293E25D
:100CE000909303018093020180915C0190915D01DA
:100CF000A0915E01B0915F012CE330E040E050E054
:100D0000BC01CD010E944C0FDA01C901AC0128EEF3
:100D100033E0429FC001439F900D529F900D1124DC
:100D200028E233E2A901481B590BCA01909305013F
:100D300080930401809104019091050181309D47C9
:100D400030F088EE93E090930501809304010E94B7
:100D5000E10308C010925C0110925D0110925E01E7
:100D600010925F01109258011092590110925A018D
:100D700010925B01000026960FB6F894DEBF0FBEFE
:100D8000CDBFDF91CF910895CF93DF93CDB7DEB77D
:100D90002A970FB6F894DEBF0FBECDBF9A8789871A
:100DA0008091640190916501A0916601B091670105
:100DB00089839A83AB83BC83809168019091690198
:100DC000A0916A01B0916B018D839E83AF83B88738
:100DD00089859A85FC0180819181A281B381892BCB
:100DE0008A2B8B2B09F4C9C080916E01882F90E06B
:100DF000009719F0019729F154C088E790E0FC01B1
:100E0000808191819C0140E050E088E19CE9AFE065
:100E1000B0E0BC01CD010E946E0FDA01C901885E0D
:100E20009340A109B1098093640190936501A09357
:100E30006601B09367018CE790E021E4FC01208318
:100E400030C088E790E0FC0180819181CC01A0E076
:100E5000B0E0BC01CD010E941C0EDC01CB0120E002
:100E600030E048E452E4BC01CD010E94D30EDC0125
:100E7000CB0120E030EC4FE754E4BC01CD010E94EF
:100E80007B0DDC01CB018093680190936901A093F5
:100E90006A01B0936B018CE790E020E4FC012083B1
:100EA000000080916E01882331F480916E018F5F84
:100EB00080936E0102C010926E0180916401909146
:100EC0006501A0916601B09167018C329140A10546
:100ED000B10510F589E290E0FC018081882F90E057
:100EE00080749927892B61F0809158019091590164
:100EF000A0915A01B0915B01892B8A2B8B2B31F089
:100F000084EB90E02FEFFC0120830AC084EB90E09B
:100F10002DE4FC01208304C084EB90E0FC011082EE
:100F200089859A85FC011082118212821382809138
:100F3000640190916501A0916601B09167012981DA
:100F40003A814B815C81281739074A075B0799F47E
:100F50008091680190916901A0916A01B0916B0143
:100F60009C01AD016D817E818F8198850E94760DF7
:100F7000882309F402C00E94E10300002A960FB6FC
:100F8000F894DEBF0FBECDBFDF91CF910895CF9310
:100F9000DF93CDB7DEB768970FB6F894DEBF0FBE0C
:100FA000CDBF4B8B5C8B6D8B7E8B8F8B988F22E1B3
:100FB000EAE3F1E0CE010196DC0101900D922A9561
:100FC000E1F785E290E020916C0130916D01220FF4
:100FD000331FAE014F5F5F4F240F351FF901208192
:100FE0003181FC01208380916C0190916D01880F0B
:100FF000991F9E012F5F3F4F820F931FFC0180813D
:10100000918188279170892B51F08BE290E02BE23F
:1010100030E0F90120812068FC01208309C08BE2C7
:1010200090E02BE230E0F90120812F77FC01208352
:1010300080916C0190916D0104970CF053C08BE28C
:1010400090E02BE230E0F90120812E7FFC0120832B
:1010500020916001309161014091620150916301E2
:1010600080916F0190917001A0917101B091720116
:10107000281B390B4A0B5B0B8D899E8996958795AA
:1010800096958795CC01A0E0B0E0281739074A076C
:101090005B0708F4DDC080916C0190916D010196B1
:1010A00090936D0180936C018D899E8996958795AB
:1010B000969587959C0140E050E080916F0190915A
:1010C0007001A0917101B0917201820F931FA41F52
:1010D000B51F80936F0190937001A0937101B0933D
:1010E0007201B6C080916C0190916D0105970CF072
:1010F00042C02091600130916101409162015091A4
:10110000630180916F0190917001A0917101B09184
:101110007201281B390B4A0B5B0B8B899C89CC0114
:10112000A0E0B0E0281739074A075B0708F490C031
:1011300080916C0190916D01019690936D01809367
:101140006C018B899C899C0140E050E080916F018B
:1011500090917001A0917101B0917201820F931F63
:10116000A41FB51F80936F0190937001A09371012C
:10117000B09372016DC080916C0190916D010997DF
:101180000CF052C08BE290E02BE230E0F9012081BC
:101190002160FC0120832091600130916101409128
:1011A00062015091630180916F0190917001A09153
:1011B0007101B0917201281B390B4A0B5B0B8F89AF
:1011C000988D9695879596958795CC01A0E0B0E08F
:1011D000281739074A075B07D8F180916C01909175
:1011E0006D01019690936D0180936C018F89988DAC
:1011F00096958795969587959C0140E050E0809163
:101200006F0190917001A0917101B0917201820FF4
:10121000931FA41FB51F80936F0190937001A0933B
:101220007101B093720114C010926D0110926C01A3
:101230008091600190916101A0916201B091630180
:1012400080936F0190937001A0937101B09372012C
:10125000000068960FB6F894DEBF0FBECDBFDF91D9
:10126000CF910895CF93DF93CDB7DEB784E290E0BE
:101270002FEFFC01208387E290E02CE3FC01208328
:101280008AE290E02BE8FC0120838BE290E02BE2E5
:1012900030E0F90120812467FC01208388E290E09E
:1012A00028E230E0F90120812064FC01208389E6F6
:1012B00090E02AE0FC0120838DE390E023E0FC0134
:1012C000208388E690E026E0FC0120838DE690E014
:1012D00020E7FC0120838CE690E020E4FC012083E1
:1012E00084E490E022E0FC01208385E490E023E0A8
:1012F000FC01208387E490E029EFFC0120838EE647
:1013000090E022E0FC01208380EB90E023E2FC01EE
:10131000208381EB90E024E0FC01208386E890E0CC
:101320002FEF30E0FC01318320838CE790E020E454
:10133000FC0120838AE790E027EEFC0120838BE705
:1013400090E0FC0110828EE790E0FC01108285ECB9
:1013500090E0FC01108284EC90E02FEFFC012083F0
:1013600081EC90E028E9FC01208382EC90E026E00B
:10137000FC01208378940E946B0A0E94E103409153
:10138000000150910101609102017091030180916F
:101390000401909105010E94C70780E591E00E9439
:1013A000DB0584E591E00E94C406E9CF1F93CF934B
:1013B000DF9300D0CDB7DEB789836A8388E290E0FF
:1013C00028E230E0F90120812D7FFC0120838A8111
:1013D000882351F088E290E028E230E0F901208192
:1013E0002860FC01208309C088E290E028E230E018
:1013F000F9012081277FFC01208310E03CC0898116
:10140000882F90E0212F30E047E050E0BA01621BC6
:10141000730B9B0102C0959587952A95E2F7817021
:101420009927892B51F088E290E028E230E0F90119
:1014300020812061FC01208309C088E290E028E23D
:1014400030E0F90120812F7EFC01208388E290E0CA
:1014500028E230E0F90120812062FC01208388E24B
:1014600090E028E230E0F90120812F7DFC0120830B
:10147000812F11E0180F183010F288E290E028E276
:1014800030E0F90120812260FC01208300000F90F0
:101490000F90DF91CF911F910895CF93DF931F920B
:1014A000CDB7DEB7898360E089810E94D60900004C
:1014B0000F90DF91CF910895CF93DF931F92CDB717
:1014C000DEB7898361E089810E94D60900000F9010
:1014D000DF91CF9108950F931F93CF93DF93CDB7F3
:1014E000DEB76C970FB6F894DEBF0FBECDBF87E2B4
:1014F00090E027E230E0F90120812260FC012083A6
:1015000087E290E027E230E0F90120812460FC01CD
:10151000208387E290E027E230E0F9012081286013
:10152000FC01208387E290E027E230E0F90120818E
:101530002061FC01208387E290E027E230E0F9019E
:1015400020812062FC01208388E290E028E230E0E4
:10155000F90120812460FC01208388E290E028E2E8
:1015600030E0F90120812260FC01208380E090E0DE
:10157000A0E2B1E489839A83AB83BC8320E030E0AE
:101580004AE753E469817A818B819C810E94D30E62
:10159000DC01CB018B8B9C8BAD8BBE8B20E030E0D4
:1015A00040E85FE36B897C898D899E890E94760D76
:1015B00088232CF481E090E0988F8F8B3FC020E04F
:1015C0003FEF4FE757E46B897C898D899E890E94A4
:1015D000CE0E18164CF520E030E040E251E469816F
:1015E0007A818B819C810E94D30EDC01CB01BC01EE
:1015F000CD010E94ED0DDC01CB01988F8F8B0FC0C8
:1016000089E190E09A8F898F898D9A8D0197F1F702
:101610009A8F898F8F89988D0197988F8F8B8F895B
:10162000988D892B69F714C06B897C898D899E8977
:101630000E94ED0DDC01CB01988F8F8B8F89988DE7
:101640009C8F8B8F8B8D9C8D0197F1F79C8F8B8F4F
:1016500088E290E028E230E0F90120812B7FFC0154
:10166000208380E090E0ACE8B2E48D839E83AF837A
:10167000B88720E030E04AE753E46D817E818F81B6
:1016800098850E94D30EDC01CB0189879A87AB87AE
:10169000BC8720E030E040E85FE369857A858B8590
:1016A0009C850E94760D88232CF481E090E09E8733
:1016B0008D873FC020E03FEF4FE757E469857A858B
:1016C0008B859C850E94CE0E18164CF520E030E0EC
:1016D00040E251E46D817E818F8198850E94D30E16
:1016E000DC01CB01BC01CD010E94ED0DDC01CB0181
:1016F0009E878D870FC089E190E0988B8F878F85BB
:1017000098890197F1F7988B8F878D859E85019732
:101710009E878D878D859E85892B69F714C0698585
:101720007A858B859C850E94ED0DDC01CB019E871F
:101730008D878D859E859A8B898B89899A8901975A
:10174000F1F79A8B898B88E290E028E230E0F9018A
:1017500020812460FC01208388E290E028E230E0D0
:10176000F90120812D7FFC01208381E20E944D0A36
:1017700083E10E944D0A86E00E944D0A82EC0E949D
:101780004D0A80E20E944D0A89E00E944D0A80E8DD
:101790000E944D0A80E40E944D0A00E010E005C05E
:1017A00080E00E945C0A0F5F1F4F083FF1E01F07B7
:1017B000B8F388E00E944D0A8CE00E944D0A0000B8
:1017C0006C960FB6F894DEBF0FBECDBFDF91CF9100
:1017D0001F910F9108950F931F93CF93DF93CDB770
:1017E000DEB780E80E944D0A80E40E944D0A109204
:1017F0006B0310926C0300E010E007C0C8018D5825
:101800009E4FFC0110820F5F1F4F083FF1E01F0742
:10181000A8F30000DF91CF911F910F910895CF930E
:10182000DF9300D000D01F92CDB7DEB78B836C83DF
:101830004D838C81869586958695882F90E044E52A
:10184000489F9001499F300D11248B81882F90E093
:10185000820F931F8D589E4F9A8389838D81882391
:10186000C9F089819A81FC018081482F8C81882F61
:1018700090E09C012770332781E090E002C0880F40
:10188000991F2A95E2F7842B282F89819A81FC01E0
:10189000208319C089819A81FC018081482F8C8125
:1018A000882F90E09C012770332781E090E002C0F0
:1018B000880F991F2A95E2F780958423282F898124
:1018C0009A81FC01208300000F900F900F900F90E1
:1018D0000F90DF91CF9108950F931F93CF93DF93D4
:1018E00000D000D01F92CDB7DEB78C836D8310E09F
:1018F00065C000E04EC08C81882F90E09C01205292
:1019000031099D81812F692F0E94400F482F50E09F
:10191000C901880F991F880F991F820F931F840F89
:10192000951F88599F4F9A83898389819A81FC01E9
:1019300084918B838B81282F30E09D81802F692FAC
:101940000E94400F882F90E0A90102C0559547954D
:101950008A95E2F7CA0181709927892B61F08091FD
:101960006C03982F900F80916B03810F41E0692FDA
:101970000E940F0C0BC080916C03982F900F8091E8
:101980006B03810F40E0692F0E940F0C802F01E054
:10199000080F402F50E08D81282F30E0C901880FBB
:1019A000991F880F991F880F991F821B930B481747
:1019B00059070CF4A0CF812F11E0180F412F50E0F0
:1019C0008D81282F30E0C901880F991F880F991F3A
:1019D000820F931F481759070CF48BCF20916B038C
:1019E0009D81892F880F880F890F820F8F5F8093C9
:1019F0006B0380916B03843570F010926B03209120
:101A00006C039D81892F880F880F880F891B820F97
:101A10008F5F80936C0380916C03803320F0109271
:101A20006B0310926C0300000F900F900F900F90BB
:101A30000F90DF91CF911F910F910895CF93DF9376
:101A400000D01F92CDB7DEB79A8389836B830CC019
:101A500089819A819C012F5F3F4F3A832983FC0142
:101A600080816B810E946C0C89819A81FC0180814C
:101A7000882371F700000F900F900F90DF91CF91A6
:101A80000895CF93DF9300D0CDB7DEB789836A8303
:101A9000898180936B038A8180936C0300000F908F
:101AA0000F90DF91CF9108950F931F93CF93DF9302
:101AB000CDB7DEB780E80E944D0A80E40E944D0A4F
:101AC00000E010E009C0C8018D589E4FFC018081E4
:101AD0000E945C0A0F5F1F4F083FF1E01F0798F359
:101AE0000000DF91CF911F910F9108950E94590E30
:101AF00008F481E008950E948F0D0C94940E0E94CA
:101B00008D0E58F00E94860E40F029F45F3F29F0B8
:101B10000C947D0E51110C94C80E0C94830E0E94EF
:101B2000A50E68F39923B1F3552391F3951B550B3B
:101B3000BB27AA2762177307840738F09F5F5F4FA0
:101B4000220F331F441FAA1FA9F335D00E2E3AF0DF
:101B5000E0E832D091505040E695001CCAF72BD0F7
:101B6000FE2F29D0660F771F881FBB1F2617370748
:101B70004807AB07B0E809F0BB0B802DBF01FF277A
:101B800093585F4F3AF09E3F510578F00C947D0ECC
:101B90000C94C80E5F3FE4F3983ED4F38695779596
:101BA0006795B795F7959F5FC9F7880F911D969533
:101BB000879597F90895E1E0660F771F881FBB1F8F
:101BC000621773078407BA0720F0621B730B840B3C
:101BD000BA0BEE1F88F7E09508950E94AD0E88F0CD
:101BE0009F5798F0B92F9927B751B0F0E1F0660FE1
:101BF000771F881F991F1AF0BA95C9F714C0B13022
:101C000091F00E94C70EB1E008950C94C70E672FA3
:101C1000782F8827B85F39F0B93FCCF38695779550
:101C20006795B395D9F73EF4909580957095619539
:101C30007F4F8F4F9F4F0895E89409C097FB3EF464
:101C400090958095709561957F4F8F4F9F4F992309
:101C5000A9F0F92F96E9BB279395F6958795779587
:101C60006795B795F111F8CFFAF4BB0F11F460FF47
:101C70001BC06F5F7F4F8F4F9F4F16C0882311F09F
:101C800096E911C0772321F09EE8872F762F05C0B3
:101C9000662371F096E8862F70E060E02AF09A954E
:101CA000660F771F881FDAF7880F9695879597F943
:101CB0000895990F0008550FAA0BE0E8FEEF1616DD
:101CC0001706E807F907C0F012161306E407F50730
:101CD00098F0621B730B840B950B39F40A2661F0A4
:101CE000232B242B252B21F408950A2609F4A14047
:101CF000A6958FEF811D811D089597F99F6780E854
:101D000070E060E008959FEF80EC089500240A944D
:101D10001616170618060906089500240A941216C6
:101D20001306140605060895092E0394000C11F4F9
:101D3000882352F0BB0F40F4BF2B11F460FF04C0A6
:101D40006F5F7F4F8F4F9F4F089557FD9058440FFF
:101D5000551F59F05F3F71F04795880F97FB991F0A
:101D600061F09F3F79F087950895121613061406C7
:101D7000551FF2CF4695F1DF08C016161706180654
:101D8000991FF1CF86957105610508940895E8942F
:101D9000BB2766277727CB0197F908950E94590E34
:101DA00008F48FEF08950E94E60E0C94940E0E94A2
:101DB000860E38F00E948D0E20F0952311F00C94C1
:101DC0007D0E0C94830E11240C94C80E0E94A50E57
:101DD00070F3959FC1F3950F50E0551F629FF0017E
:101DE000729FBB27F00DB11D639FAA27F00DB11D97
:101DF000AA1F649F6627B00DA11D661F829F222720
:101E0000B00DA11D621F739FB00DA11D621F839FA6
:101E1000A00D611D221F749F3327A00D611D231F7C
:101E2000849F600D211D822F762F6A2F11249F57CA
:101E300050409AF0F1F088234AF0EE0FFF1FBB1FCD
:101E4000661F771F881F91505040A9F79E3F51058C
:101E500080F00C947D0E0C94C80E5F3FE4F3983E26
:101E6000D4F3869577956795B795F795E7959F5F36
:101E7000C1F7FE2B880F911D9695879597F90895C8
:101E8000991B79E004C0991F961708F0961B881FCC
:101E90007A95C9F780950895A1E21A2EAA1BBB1B5B
:101EA000FD010DC0AA1FBB1FEE1FFF1FA217B30726
:101EB000E407F50720F0A21BB30BE40BF50B661F3C
:101EC000771F881F991F1A9469F760957095809500
:101ED00090959B01AC01BD01CF010895052E97FBA4
:101EE0001EF400940E94850F57FD07D00E944C0FEE
:101EF00007FC03D04EF40C94850F50954095309517
:101F000021953F4F4F4F5F4F089590958095709565
:101F100061957F4F8F4F9F4F0895A29FB001B39F50
:101F2000C001A39F700D811D1124911DB29F700DE2
:101F3000811D1124911D0895AEE0B0E0E2EAFFE0BA
:101F40000C945D120D891E8986E08C831A830983A7
:101F50008FEF9FE79E838D83AE01475E5F4F6F8952
:101F6000788DCE0101960E94BE0FEF81F885E00FBB
:101F7000F11F10822E96E4E00C947912ABE0B0E0F1
:101F8000E4ECFFE00C944F126C017B018A01FC0130
:101F900017821682838181FFCCC1CE0101963C015C
:101FA000F6019381F70193FD859193FF81917F0164
:101FB000882309F4BAC1853239F493FD859193FFE2
:101FC00081917F01853229F4B60190E00E94B5111C
:101FD000E7CF912C212C312CFFE1F315D8F08B3277
:101FE00079F038F4803279F08332A1F4232D206126
:101FF0001DC08D3261F0803369F4232D216016C03D
:10200000832D8260382EE32DE4603E2E2AC0F32D0E
:10201000F8601DC037FC2DC020ED280F2A3040F09D
:102020008E32B9F436FC81C1232D2064322E19C0C2
:1020300036FE06C08AE0989E200D1124922E11C013
:10204000EAE02E9E200D1124222EF32DF0623F2E69
:1020500008C08C3621F4832D8068382E02C0883663
:1020600041F4F70193FD859193FF81917F018111E7
:10207000B3CF982F9F7D9554933028F40C5F1F4F5A
:102080009FE399830DC0833631F0833771F0833538
:1020900009F059C021C0F801808189830E5F1F4F6C
:1020A00088248394912C530113C02801F2E04F0E31
:1020B000511CF801A080B18036FE03C0692D70E08C
:1020C00002C06FEF7FEFC5010E94AA114C0182018F
:1020D000F32DFF773F2E16C0280122E0420E511C3F
:1020E000F801A080B18036FE03C0692D70E002C007
:1020F0006FEF7FEFC5010E949F114C01F32DF06837
:102100003F2E820133FC1BC0822D90E08816990679
:10211000B0F4B60180E290E00E94B5112A94F4CFA9
:10212000F50137FC859137FE81915F01B60190E0A2
:102130000E94B51121102A9421E0821A910881147D
:10214000910471F7E8C0843611F0893641F5F80141
:1021500037FE07C060817181828193810C5F1F4FC0
:1021600008C060817181072E000C880B990B0E5FEF
:102170001F4FF32DFF763F2E97FF09C09095809556
:10218000709561957F4F8F4F9F4FF0683F2E2AE0EB
:1021900030E0A3010E94F111882E861845C08537D2
:1021A00031F4232D2F7EB22E2AE030E025C0932D6E
:1021B000997FB92E8F36C1F018F4883579F0B5C003
:1021C000803719F0883721F0B0C0E92FE061BE2ECA
:1021D000B4FE0DC0FB2DF460BF2E09C034FE0AC052
:1021E000292F2660B22E06C028E030E005C020E18D
:1021F00030E002C020E132E0F801B7FE07C06081A4
:102200007181828193810C5F1F4F06C06081718153
:1022100080E090E00E5F1F4FA3010E94F111882E15
:102220008618FB2DFF773F2E36FE0DC0232D2E7F07
:10223000A22E891458F434FE0BC032FC09C0832D41
:102240008E7EA82E05C0B82CA32C03C0B82C01C0CC
:10225000B92CA4FE0FC0FE01E80DF11D8081803372
:1022600021F49A2D997EA92E09C0A2FE06C0B3942E
:10227000B39404C08A2D867809F0B394A3FC11C0EE
:10228000A0FE06C0B21488F4280C922C9B180EC035
:10229000B21460F4B60180E290E00E94B511B394EC
:1022A000F7CFB21418F42B1802C0982C212CA4FEDE
:1022B00010C0B60180E390E00E94B511A2FE17C0E5
:1022C000A1FC03C088E790E002C088E590E0B60179
:1022D0000CC08A2D867859F0A1FE02C08BE201C0A5
:1022E00080E2A7FC8DE2B60190E00E94B51189144E
:1022F00038F4B60180E390E00E94B5119A94F7CFCC
:102300008A94F301E80DF11D8081B60190E00E94EE
:10231000B5118110F5CF222009F442CEB60180E23A
:1023200090E00E94B5112A94F6CFF601868197813C
:1023300002C08FEF9FEF2B96E2E10C946B12FC0131
:102340000590615070400110D8F7809590958E0FE0
:102350009F1F0895FC016150704001900110D8F753
:10236000809590958E0F9F1F08950F931F93CF9385
:10237000DF93FB01238121FD03C08FEF9FEF2CC072
:1023800022FF16C0468157812481358142175307A9
:1023900044F4A081B1819D012F5F3F4F31832083A1
:1023A0008C93268137812F5F3F4F3783268314C05C
:1023B0008B01EC01FB010084F185E02D0995892B4F
:1023C000E1F6D80116968D919C9117970196179674
:1023D0009C938E931697CE01DF91CF911F910F9111
:1023E0000895FA01AA27283051F1203181F1E894AB
:1023F0006F936E7F6E5F7F4F8F4F9F4FAF4FB1E0F8
:102400003ED0B4E03CD0670F781F891F9A1FA11DF2
:10241000680F791F8A1F911DA11D6A0F711D811DF3
:10242000911DA11D20D009F468943F912AE0269FB8
:1024300011243019305D3193DEF6CF010895462F17
:102440004770405D4193B3E00FD0C9F7F6CF462FF8
:102450004F70405D4A3318F0495D31FD4052419361
:1024600002D0A9F7EACFB4E0A6959795879577951E
:102470006795BA95C9F700976105710508959B01A5
:10248000AC010A2E06945795479537952795BA952E
:10249000C9F7620F731F841F951FA01D08952F9207
:1024A0003F924F925F926F927F928F929F92AF92E4
:1024B000BF92CF92DF92EF92FF920F931F93CF9331
:1024C000DF93CDB7DEB7CA1BDB0B0FB6F894DEBFC8
:1024D0000FBECDBF09942A88398848885F846E84EE
:1024E0007D848C849B84AA84B984C884DF80EE8038
:1024F000FD800C811B81AA81B981CE0FD11D0FB641
:10250000F894DEBF0FBECDBFED010895F894FFCF64
:10251000E803D007D007280000002575004D6F6440
:102520006F002D2D2D2D2D2D00542E56642000547E
:102530002E566D2000542E416D20007C002043005B
:102540004C555800632F6D696E000F0007000300A3
:0C25500001000001F000700030001000DD
:00000001FF
